SMH8720092900014200010000603005975IRM SANTA CASA ALEGRETE                                                                                                       
00350687200929000142000000003836500001654553102401072                            
01669609150100600045212114011963700001GISELE TEIXEIRA TOLEDO                     
02669609150100600045212119999509200001GISELE TEIXEIRA TOLEDO                     
03669609150100600045212114100109500001GISELE TEIXEIRA TOLEDO                     
04669609150100600045212114953271500001GISELE TEIXEIRA TOLEDO                     
05669609150100600045212119999503800080GISELE TEIXEIRA TOLEDO                     
06669609150100600045212114010486900001GISELE TEIXEIRA TOLEDO                     
